{
  "_format": "hh-sol-artifact-1",
  "contractName": "CollegeContract",
  "sourceName": "contracts/Token.sol",
  "abi": [
    {
      "inputs": [
        {
          "internalType": "address",
          "name": "_forwarder",
          "type": "address"
        }
      ],
      "stateMutability": "nonpayable",
      "type": "constructor"
    },
    {
      "inputs": [
        {
          "internalType": "address",
          "name": "_allowedAdmin",
          "type": "address"
        }
      ],
      "name": "addAdmin",
      "outputs": [],
      "stateMutability": "nonpayable",
      "type": "function"
    },
    {
      "inputs": [
        {
          "internalType": "string",
          "name": "_pollList",
          "type": "string"
        }
      ],
      "name": "addPolls",
      "outputs": [],
      "stateMutability": "nonpayable",
      "type": "function"
    },
    {
      "inputs": [
        {
          "internalType": "string",
          "name": "_pollList",
          "type": "string"
        }
      ],
      "name": "addPost",
      "outputs": [],
      "stateMutability": "nonpayable",
      "type": "function"
    },
    {
      "inputs": [
        {
          "internalType": "string",
          "name": "_pollList",
          "type": "string"
        }
      ],
      "name": "addSuggestion",
      "outputs": [],
      "stateMutability": "nonpayable",
      "type": "function"
    },
    {
      "inputs": [
        {
          "internalType": "string",
          "name": "_allowedUser",
          "type": "string"
        }
      ],
      "name": "addUser",
      "outputs": [],
      "stateMutability": "nonpayable",
      "type": "function"
    },
    {
      "inputs": [],
      "name": "getName",
      "outputs": [
        {
          "internalType": "string",
          "name": "",
          "type": "string"
        }
      ],
      "stateMutability": "view",
      "type": "function"
    },
    {
      "inputs": [],
      "name": "getPost",
      "outputs": [
        {
          "internalType": "string",
          "name": "",
          "type": "string"
        }
      ],
      "stateMutability": "view",
      "type": "function"
    },
    {
      "inputs": [],
      "name": "getQuote",
      "outputs": [
        {
          "internalType": "string",
          "name": "currentQuote",
          "type": "string"
        },
        {
          "internalType": "address",
          "name": "currentOwner",
          "type": "address"
        }
      ],
      "stateMutability": "view",
      "type": "function"
    },
    {
      "inputs": [
        {
          "internalType": "string",
          "name": "polldata",
          "type": "string"
        },
        {
          "internalType": "uint8",
          "name": "optionId",
          "type": "uint8"
        }
      ],
      "name": "getScore",
      "outputs": [
        {
          "internalType": "uint256",
          "name": "",
          "type": "uint256"
        }
      ],
      "stateMutability": "view",
      "type": "function"
    },
    {
      "inputs": [],
      "name": "getSuggestion",
      "outputs": [
        {
          "internalType": "string",
          "name": "",
          "type": "string"
        }
      ],
      "stateMutability": "view",
      "type": "function"
    },
    {
      "inputs": [],
      "name": "getUser",
      "outputs": [
        {
          "internalType": "string",
          "name": "",
          "type": "string"
        }
      ],
      "stateMutability": "view",
      "type": "function"
    },
    {
      "inputs": [
        {
          "internalType": "address",
          "name": "",
          "type": "address"
        }
      ],
      "name": "nonces",
      "outputs": [
        {
          "internalType": "uint256",
          "name": "",
          "type": "uint256"
        }
      ],
      "stateMutability": "view",
      "type": "function"
    },
    {
      "inputs": [],
      "name": "owner",
      "outputs": [
        {
          "internalType": "address",
          "name": "",
          "type": "address"
        }
      ],
      "stateMutability": "view",
      "type": "function"
    },
    {
      "inputs": [],
      "name": "quote",
      "outputs": [
        {
          "internalType": "string",
          "name": "",
          "type": "string"
        }
      ],
      "stateMutability": "view",
      "type": "function"
    },
    {
      "inputs": [
        {
          "internalType": "address",
          "name": "forwarder",
          "type": "address"
        }
      ],
      "name": "isTrustedForwarder",
      "outputs": [
        {
          "internalType": "bool",
          "name": "",
          "type": "bool"
        }
      ],
      "stateMutability": "view",
      "type": "function"
    },
    {
      "inputs": [],
      "name": "setTrustedForwarder",
      "outputs": [],
      "stateMutability": "nonpayable",
      "type": "function"
    },
    {
      "inputs": [
        {
          "internalType": "string",
          "name": "newQuote",
          "type": "string"
        }
      ],
      "name": "setQuote",
      "outputs": [],
      "stateMutability": "nonpayable",
      "type": "function"
    },
    {
      "inputs": [
        {
          "internalType": "address",
          "name": "userAddress",
          "type": "address"
        },
        {
          "internalType": "string",
          "name": "newQuote",
          "type": "string"
        },
        {
          "internalType": "bytes32",
          "name": "r",
          "type": "bytes32"
        },
        {
          "internalType": "bytes32",
          "name": "s",
          "type": "bytes32"
        },
        {
          "internalType": "uint8",
          "name": "v",
          "type": "uint8"
        }
      ],
      "name": "setQuoteMeta",
      "outputs": [],
      "stateMutability": "nonpayable",
      "type": "function"
    },
    {
      "inputs": [
        {
          "internalType": "string",
          "name": "polldata",
          "type": "string"
        },
        {
          "internalType": "uint8",
          "name": "optionId",
          "type": "uint8"
        }
      ],
      "name": "vote",
      "outputs": [],
      "stateMutability": "nonpayable",
      "type": "function"
    }
  ],
  "bytecode": "0x60806040526040518060400160405280600681526020017f766f746574680000000000000000000000000000000000000000000000000000815250600090816200004a919062000494565b506040518060400160405280600581526020017f45544845430000000000000000000000000000000000000000000000000000008152506001908162000091919062000494565b506040518060400160405280600881526020017f697066734c696e6b00000000000000000000000000000000000000000000000081525060039081620000d8919062000494565b506040518060400160405280601581526020017f736a68766277766b76626f77727562766f777269760000000000000000000000815250600490816200011f919062000494565b506040518060400160405280601081526020017f736b766a62736e6c766b6e6c6b766e77000000000000000000000000000000008152506005908162000166919062000494565b506040518060400160405280600481526020017f616b75620000000000000000000000000000000000000000000000000000000081525060069081620001ad919062000494565b50348015620001bb57600080fd5b506001600260003373ffffffffffffffffffffffffffffffffffffffff1673ffffffffffffffffffffffffffffffffffffffff16815260200190815260200160002060006101000a81548160ff0219169083151502179055506200057b565b600081519050919050565b7f4e487b7100000000000000000000000000000000000000000000000000000000600052604160045260246000fd5b7f4e487b7100000000000000000000000000000000000000000000000000000000600052602260045260246000fd5b600060028204905060018216806200029c57607f821691505b602082108103620002b257620002b162000254565b5b50919050565b60008190508160005260206000209050919050565b60006020601f8301049050919050565b600082821b905092915050565b6000600883026200031c7fffffffffffffffffffffffffffffffffffffffffffffffffffffffffffffffff82620002dd565b620003288683620002dd565b95508019841693508086168417925050509392505050565b6000819050919050565b6000819050919050565b6000620003756200036f620003698462000340565b6200034a565b62000340565b9050919050565b6000819050919050565b620003918362000354565b620003a9620003a0826200037c565b848454620002ea565b825550505050565b600090565b620003c0620003b1565b620003cd81848462000386565b505050565b5b81811015620003f557620003e9600082620003b6565b600181019050620003d3565b5050565b601f82111562000444576200040e81620002b8565b6200041984620002cd565b8101602085101562000429578190505b620004416200043885620002cd565b830182620003d2565b50505b505050565b600082821c905092915050565b6000620004696000198460080262000449565b1980831691505092915050565b600062000484838362000456565b9150826002028217905092915050565b6200049f826200021a565b67ffffffffffffffff811115620004bb57620004ba62000225565b5b620004c7825462000283565b620004d4828285620003f9565b600060209050601f8311600181146200050c5760008415620004f7578287015190505b62000503858262000476565b86555062000573565b601f1984166200051c86620002b8565b60005b8281101562000546578489015182556001820191506020850194506020810190506200051f565b8683101562000566578489015162000562601f89168262000456565b8355505b6001600288020188555050505b505050505050565b610f79806200058b6000396000f3fe608060405234801561001057600080fd5b50600436106100cf5760003560e01c8063704802751161008c57806390ca27f31161006657806390ca27f3146101ee578063a63228191461020a578063a8aeef7014610226578063ed35583414610242576100cf565b80637048027514610196578063832880e7146101b25780638c6838ba146101d0576100cf565b806301a66712146100d457806303f99b7e146100f0578063150704011461012057806317d7de7c1461013e57806318b8275a1461015c57806368d005af14610178575b600080fd5b6100ee60048036038101906100e9919061089b565b610260565b005b61010a60048036038101906101059190610921565b610276565b604051610117919061099a565b60405180910390f35b6101286102b9565b6040516101359190610a45565b60405180910390f35b61014661034b565b6040516101539190610a45565b60405180910390f35b6101766004803603810190610171919061089b565b6103dd565b005b61018061047f565b60405161018d9190610a45565b60405180910390f35b6101b060048036038101906101ab9190610ac5565b610511565b005b6101ba6105f8565b6040516101c79190610a45565b60405180910390f35b6101d861068a565b6040516101e59190610a45565b60405180910390f35b61020860048036038101906102039190610921565b61071c565b005b610224600480360381019061021f919061089b565b61076e565b005b610240600480360381019061023b919061089b565b610784565b005b61024a61079a565b6040516102579190610a45565b60405180910390f35b818160069182610271929190610d38565b505050565b60006007848460405161028a929190610e47565b908152602001604051809103902060008360ff1660ff1681526020019081526020016000205490509392505050565b6060600080546102c890610b5b565b80601f01602080910402602001604051908101604052809291908181526020018280546102f490610b5b565b80156103415780601f1061031657610100808354040283529160200191610341565b820191906000526020600020905b81548152906001019060200180831161032457829003601f168201915b5050505050905090565b60606000805461035a90610b5b565b80601f016020809104026020016040519081016040528092919081815260200182805461038690610b5b565b80156103d35780601f106103a8576101008083540402835291602001916103d3565b820191906000526020600020905b8154815290600101906020018083116103b657829003601f168201915b5050505050905090565b600260003373ffffffffffffffffffffffffffffffffffffffff1673ffffffffffffffffffffffffffffffffffffffff16815260200190815260200160002060009054906101000a900460ff16610469576040517f08c379a000000000000000000000000000000000000000000000000000000000815260040161046090610eac565b60405180910390fd5b81816003918261047a929190610d38565b505050565b60606006805461048e90610b5b565b80601f01602080910402602001604051908101604052809291908181526020018280546104ba90610b5b565b80156105075780601f106104dc57610100808354040283529160200191610507565b820191906000526020600020905b8154815290600101906020018083116104ea57829003601f168201915b5050505050905090565b600260003373ffffffffffffffffffffffffffffffffffffffff1673ffffffffffffffffffffffffffffffffffffffff16815260200190815260200160002060009054906101000a900460ff1661059d576040517f08c379a000000000000000000000000000000000000000000000000000000000815260040161059490610eac565b60405180910390fd5b6001600260008373ffffffffffffffffffffffffffffffffffffffff1673ffffffffffffffffffffffffffffffffffffffff16815260200190815260200160002060006101000a81548160ff02191690831515021790555050565b60606003805461060790610b5b565b80601f016020809104026020016040519081016040528092919081815260200182805461063390610b5b565b80156106805780601f1061065557610100808354040283529160200191610680565b820191906000526020600020905b81548152906001019060200180831161066357829003601f168201915b5050505050905090565b60606004805461069990610b5b565b80601f01602080910402602001604051908101604052809291908181526020018280546106c590610b5b565b80156107125780601f106106e757610100808354040283529160200191610712565b820191906000526020600020905b8154815290600101906020018083116106f557829003601f168201915b5050505050905090565b6007838360405161072e929190610e47565b908152602001604051809103902060008260ff1660ff168152602001908152602001600020600081548092919061076490610efb565b9190505550505050565b81816004918261077f929190610d38565b505050565b818160049182610795929190610d38565b505050565b6060600480546107a990610b5b565b80601f01602080910402602001604051908101604052809291908181526020018280546107d590610b5b565b80156108225780601f106107f757610100808354040283529160200191610822565b820191906000526020600020905b81548152906001019060200180831161080557829003601f168201915b5050505050905090565b600080fd5b600080fd5b600080fd5b600080fd5b600080fd5b60008083601f84011261085b5761085a610836565b5b8235905067ffffffffffffffff8111156108785761087761083b565b5b60208301915083600182028301111561089457610893610840565b5b9250929050565b600080602083850312156108b2576108b161082c565b5b600083013567ffffffffffffffff8111156108d0576108cf610831565b5b6108dc85828601610845565b92509250509250929050565b600060ff82169050919050565b6108fe816108e8565b811461090957600080fd5b50565b60008135905061091b816108f5565b92915050565b60008060006040848603121561093a5761093961082c565b5b600084013567ffffffffffffffff81111561095857610957610831565b5b61096486828701610845565b935093505060206109778682870161090c565b9150509250925092565b6000819050919050565b61099481610981565b82525050565b60006020820190506109af600083018461098b565b92915050565b600081519050919050565b600082825260208201905092915050565b60005b838110156109ef5780820151818401526020810190506109d4565b60008484015250505050565b6000601f19601f8301169050919050565b6000610a17826109b5565b610a2181856109c0565b9350610a318185602086016109d1565b610a3a816109fb565b840191505092915050565b60006020820190508181036000830152610a5f8184610a0c565b905092915050565b600073ffffffffffffffffffffffffffffffffffffffff82169050919050565b6000610a9282610a67565b9050919050565b610aa281610a87565b8114610aad57600080fd5b50565b600081359050610abf81610a99565b92915050565b600060208284031215610adb57610ada61082c565b5b6000610ae984828501610ab0565b91505092915050565b600082905092915050565b7f4e487b7100000000000000000000000000000000000000000000000000000000600052604160045260246000fd5b7f4e487b7100000000000000000000000000000000000000000000000000000000600052602260045260246000fd5b60006002820490506001821680610b7357607f821691505b602082108103610b8657610b85610b2c565b5b50919050565b60008190508160005260206000209050919050565b60006020601f8301049050919050565b600082821b905092915050565b600060088302610bee7fffffffffffffffffffffffffffffffffffffffffffffffffffffffffffffffff82610bb1565b610bf88683610bb1565b95508019841693508086168417925050509392505050565b6000819050919050565b6000610c35610c30610c2b84610981565b610c10565b610981565b9050919050565b6000819050919050565b610c4f83610c1a565b610c63610c5b82610c3c565b848454610bbe565b825550505050565b600090565b610c78610c6b565b610c83818484610c46565b505050565b5b81811015610ca757610c9c600082610c70565b600181019050610c89565b5050565b601f821115610cec57610cbd81610b8c565b610cc684610ba1565b81016020851015610cd5578190505b610ce9610ce185610ba1565b830182610c88565b50505b505050565b600082821c905092915050565b6000610d0f60001984600802610cf1565b1980831691505092915050565b6000610d288383610cfe565b9150826002028217905092915050565b610d428383610af2565b67ffffffffffffffff811115610d5b57610d5a610afd565b5b610d658254610b5b565b610d70828285610cab565b6000601f831160018114610d9f5760008415610d8d578287013590505b610d978582610d1c565b865550610dff565b601f198416610dad86610b8c565b60005b82811015610dd557848901358255600182019150602085019450602081019050610db0565b86831015610df25784890135610dee601f891682610cfe565b8355505b6001600288020188555050505b50505050505050565b600081905092915050565b82818337600083830152505050565b6000610e2e8385610e08565b9350610e3b838584610e13565b82840190509392505050565b6000610e54828486610e22565b91508190509392505050565b7f556e617574686f72697a65642052657175657374000000000000000000000000600082015250565b6000610e966014836109c0565b9150610ea182610e60565b602082019050919050565b60006020820190508181036000830152610ec581610e89565b9050919050565b7f4e487b7100000000000000000000000000000000000000000000000000000000600052601160045260246000fd5b6000610f0682610981565b91507fffffffffffffffffffffffffffffffffffffffffffffffffffffffffffffffff8203610f3857610f37610ecc565b5b60018201905091905056fea264697066735822122070a7e241215443a56576ad93554d8fdda93cbf984f881a7c3dc765a53f67417a64736f6c63430008110033",
  "linkReferences": {},
  "deployedLinkReferences": {}
}