{
  "_format": "hh-sol-artifact-1",
  "contractName": "CollegeContract",
  "sourceName": "contracts/Token.sol",
  "abi": [
    {
      "inputs": [
        {
          "internalType": "address",
          "name": "_forwarder",
          "type": "address"
        }
      ],
      "stateMutability": "nonpayable",
      "type": "constructor"
    },
    {
      "inputs": [
        {
          "internalType": "address",
          "name": "_allowedAdmin",
          "type": "address"
        }
      ],
      "name": "addAdmin",
      "outputs": [],
      "stateMutability": "nonpayable",
      "type": "function"
    },
    {
      "inputs": [
        {
          "internalType": "string",
          "name": "_pollList",
          "type": "string"
        }
      ],
      "name": "addPolls",
      "outputs": [],
      "stateMutability": "nonpayable",
      "type": "function"
    },
    {
      "inputs": [
        {
          "internalType": "string",
          "name": "_pollList",
          "type": "string"
        }
      ],
      "name": "addPost",
      "outputs": [],
      "stateMutability": "nonpayable",
      "type": "function"
    },
    {
      "inputs": [
        {
          "internalType": "string",
          "name": "_pollList",
          "type": "string"
        }
      ],
      "name": "addSuggestion",
      "outputs": [],
      "stateMutability": "nonpayable",
      "type": "function"
    },
    {
      "inputs": [
        {
          "internalType": "string",
          "name": "_allowedUser",
          "type": "string"
        }
      ],
      "name": "addUser",
      "outputs": [],
      "stateMutability": "nonpayable",
      "type": "function"
    },
    {
      "inputs": [],
      "name": "forwarder",
      "outputs": [
        {
          "internalType": "address",
          "name": "",
          "type": "address"
        }
      ],
      "stateMutability": "view",
      "type": "function"
    },
    {
      "inputs": [],
      "name": "getName",
      "outputs": [
        {
          "internalType": "string",
          "name": "",
          "type": "string"
        }
      ],
      "stateMutability": "view",
      "type": "function"
    },
    {
      "inputs": [],
      "name": "getPollsList",
      "outputs": [
        {
          "internalType": "string",
          "name": "",
          "type": "string"
        }
      ],
      "stateMutability": "view",
      "type": "function"
    },
    {
      "inputs": [],
      "name": "getPost",
      "outputs": [
        {
          "internalType": "string",
          "name": "",
          "type": "string"
        }
      ],
      "stateMutability": "view",
      "type": "function"
    },
    {
      "inputs": [
        {
          "internalType": "string",
          "name": "polldata",
          "type": "string"
        },
        {
          "internalType": "uint8",
          "name": "optionId",
          "type": "uint8"
        }
      ],
      "name": "getScore",
      "outputs": [
        {
          "internalType": "uint256",
          "name": "",
          "type": "uint256"
        }
      ],
      "stateMutability": "view",
      "type": "function"
    },
    {
      "inputs": [],
      "name": "getSuggestion",
      "outputs": [
        {
          "internalType": "string",
          "name": "",
          "type": "string"
        }
      ],
      "stateMutability": "view",
      "type": "function"
    },
    {
      "inputs": [],
      "name": "getSymbol",
      "outputs": [
        {
          "internalType": "string",
          "name": "",
          "type": "string"
        }
      ],
      "stateMutability": "view",
      "type": "function"
    },
    {
      "inputs": [],
      "name": "getUser",
      "outputs": [
        {
          "internalType": "string",
          "name": "",
          "type": "string"
        }
      ],
      "stateMutability": "view",
      "type": "function"
    },
    {
      "inputs": [
        {
          "internalType": "address",
          "name": "forwarder",
          "type": "address"
        }
      ],
      "name": "isTrustedForwarder",
      "outputs": [
        {
          "internalType": "bool",
          "name": "",
          "type": "bool"
        }
      ],
      "stateMutability": "view",
      "type": "function"
    },
    {
      "inputs": [],
      "name": "setTrustedForwarder",
      "outputs": [],
      "stateMutability": "nonpayable",
      "type": "function"
    },
    {
      "inputs": [
        {
          "internalType": "string",
          "name": "polldata",
          "type": "string"
        },
        {
          "internalType": "uint8",
          "name": "optionId",
          "type": "uint8"
        }
      ],
      "name": "vote",
      "outputs": [],
      "stateMutability": "nonpayable",
      "type": "function"
    }
  ],
  "bytecode": "0x60a06040526040518060400160405280600681526020017f766f74657468000000000000000000000000000000000000000000000000000081525060009080519060200190620000519291906200037c565b506040518060400160405280600581526020017f4554484543000000000000000000000000000000000000000000000000000000815250600190805190602001906200009f9291906200037c565b506040518060400160405280600881526020017f697066734c696e6b00000000000000000000000000000000000000000000000081525060039080519060200190620000ed9291906200037c565b506040518060400160405280601581526020017f736a68766277766b76626f77727562766f777269760000000000000000000000815250600590805190602001906200013b9291906200037c565b506040518060400160405280601081526020017f736b766a62736e6c766b6e6c6b766e770000000000000000000000000000000081525060069080519060200190620001899291906200037c565b506040518060400160405280600481526020017f616b75620000000000000000000000000000000000000000000000000000000081525060079080519060200190620001d79291906200037c565b50348015620001e557600080fd5b50604051620015463803806200154683398181016040528101906200020b919062000496565b808073ffffffffffffffffffffffffffffffffffffffff1660808173ffffffffffffffffffffffffffffffffffffffff16815250505060016002600062000257620002f060201b60201c565b73ffffffffffffffffffffffffffffffffffffffff1673ffffffffffffffffffffffffffffffffffffffff16815260200190815260200160002060006101000a81548160ff02191690831515021790555080600460006101000a81548173ffffffffffffffffffffffffffffffffffffffff021916908373ffffffffffffffffffffffffffffffffffffffff160217905550506200052d565b600062000303336200033a60201b60201c565b156200031957601436033560601c905062000336565b6200032e6200037460201b62000a1e1760201c565b905062000337565b5b90565b600060805173ffffffffffffffffffffffffffffffffffffffff168273ffffffffffffffffffffffffffffffffffffffff16149050919050565b600033905090565b8280546200038a90620004f7565b90600052602060002090601f016020900481019282620003ae5760008555620003fa565b82601f10620003c957805160ff1916838001178555620003fa565b82800160010185558215620003fa579182015b82811115620003f9578251825591602001919060010190620003dc565b5b5090506200040991906200040d565b5090565b5b80821115620004285760008160009055506001016200040e565b5090565b600080fd5b600073ffffffffffffffffffffffffffffffffffffffff82169050919050565b60006200045e8262000431565b9050919050565b620004708162000451565b81146200047c57600080fd5b50565b600081519050620004908162000465565b92915050565b600060208284031215620004af57620004ae6200042c565b5b6000620004bf848285016200047f565b91505092915050565b7f4e487b7100000000000000000000000000000000000000000000000000000000600052602260045260246000fd5b600060028204905060018216806200051057607f821691505b60208210811415620005275762000526620004c8565b5b50919050565b608051610ffd6200054960003960006105130152610ffd6000f3fe608060405234801561001057600080fd5b50600436106101005760003560e01c806377f02b8011610097578063a632281911610066578063a632281914610275578063a8aeef7014610291578063ed355834146102ad578063f645d4f9146102cb57610100565b806377f02b8014610213578063832880e71461021d5780638c6838ba1461023b57806390ca27f31461025957610100565b806318b8275a116100d357806318b8275a1461018d578063572b6c05146101a957806368d005af146101d957806370480275146101f757610100565b806301a667121461010557806303f99b7e14610121578063150704011461015157806317d7de7c1461016f575b600080fd5b61011f600480360381019061011a9190610b6a565b6102e9565b005b61013b60048036038101906101369190610bf0565b6102ff565b6040516101489190610c69565b60405180910390f35b610159610342565b6040516101669190610d1d565b60405180910390f35b6101776103d4565b6040516101849190610d1d565b60405180910390f35b6101a760048036038101906101a29190610b6a565b610466565b005b6101c360048036038101906101be9190610d9d565b61050f565b6040516101d09190610de5565b60405180910390f35b6101e1610567565b6040516101ee9190610d1d565b60405180910390f35b610211600480360381019061020c9190610d9d565b6105f9565b005b61021b6106e7565b005b6102256107c4565b6040516102329190610d1d565b60405180910390f35b610243610856565b6040516102509190610d1d565b60405180910390f35b610273600480360381019061026e9190610bf0565b6108e8565b005b61028f600480360381019061028a9190610b6a565b61093a565b005b6102ab60048036038101906102a69190610b6a565b610950565b005b6102b5610966565b6040516102c29190610d1d565b60405180910390f35b6102d36109f8565b6040516102e09190610e0f565b60405180910390f35b8181600791906102fa929190610a58565b505050565b600060088484604051610313929190610e69565b908152602001604051809103902060008360ff1660ff1681526020019081526020016000205490509392505050565b60606000805461035190610eb1565b80601f016020809104026020016040519081016040528092919081815260200182805461037d90610eb1565b80156103ca5780601f1061039f576101008083540402835291602001916103ca565b820191906000526020600020905b8154815290600101906020018083116103ad57829003601f168201915b5050505050905090565b6060600080546103e390610eb1565b80601f016020809104026020016040519081016040528092919081815260200182805461040f90610eb1565b801561045c5780601f106104315761010080835404028352916020019161045c565b820191906000526020600020905b81548152906001019060200180831161043f57829003601f168201915b5050505050905090565b60026000610472610a26565b73ffffffffffffffffffffffffffffffffffffffff1673ffffffffffffffffffffffffffffffffffffffff16815260200190815260200160002060009054906101000a900460ff166104f9576040517f08c379a00000000000000000000000000000000000000000000000000000000081526004016104f090610f2f565b60405180910390fd5b81816003919061050a929190610a58565b505050565b60007f000000000000000000000000000000000000000000000000000000000000000073ffffffffffffffffffffffffffffffffffffffff168273ffffffffffffffffffffffffffffffffffffffff16149050919050565b60606007805461057690610eb1565b80601f01602080910402602001604051908101604052809291908181526020018280546105a290610eb1565b80156105ef5780601f106105c4576101008083540402835291602001916105ef565b820191906000526020600020905b8154815290600101906020018083116105d257829003601f168201915b5050505050905090565b60026000610605610a26565b73ffffffffffffffffffffffffffffffffffffffff1673ffffffffffffffffffffffffffffffffffffffff16815260200190815260200160002060009054906101000a900460ff1661068c576040517f08c379a000000000000000000000000000000000000000000000000000000000815260040161068390610f2f565b60405180910390fd5b6001600260008373ffffffffffffffffffffffffffffffffffffffff1673ffffffffffffffffffffffffffffffffffffffff16815260200190815260200160002060006101000a81548160ff02191690831515021790555050565b600260006106f3610a26565b73ffffffffffffffffffffffffffffffffffffffff1673ffffffffffffffffffffffffffffffffffffffff16815260200190815260200160002060009054906101000a900460ff1661077a576040517f08c379a000000000000000000000000000000000000000000000000000000000815260040161077190610f2f565b60405180910390fd5b610782610a26565b600460006101000a81548173ffffffffffffffffffffffffffffffffffffffff021916908373ffffffffffffffffffffffffffffffffffffffff160217905550565b6060600380546107d390610eb1565b80601f01602080910402602001604051908101604052809291908181526020018280546107ff90610eb1565b801561084c5780601f106108215761010080835404028352916020019161084c565b820191906000526020600020905b81548152906001019060200180831161082f57829003601f168201915b5050505050905090565b60606005805461086590610eb1565b80601f016020809104026020016040519081016040528092919081815260200182805461089190610eb1565b80156108de5780601f106108b3576101008083540402835291602001916108de565b820191906000526020600020905b8154815290600101906020018083116108c157829003601f168201915b5050505050905090565b600883836040516108fa929190610e69565b908152602001604051809103902060008260ff1660ff168152602001908152602001600020600081548092919061093090610f7e565b9190505550505050565b81816005919061094b929190610a58565b505050565b818160059190610961929190610a58565b505050565b60606005805461097590610eb1565b80601f01602080910402602001604051908101604052809291908181526020018280546109a190610eb1565b80156109ee5780601f106109c3576101008083540402835291602001916109ee565b820191906000526020600020905b8154815290600101906020018083116109d157829003601f168201915b5050505050905090565b600460009054906101000a900473ffffffffffffffffffffffffffffffffffffffff1681565b600033905090565b6000610a313361050f565b15610a4557601436033560601c9050610a54565b610a4d610a1e565b9050610a55565b5b90565b828054610a6490610eb1565b90600052602060002090601f016020900481019282610a865760008555610acd565b82601f10610a9f57803560ff1916838001178555610acd565b82800160010185558215610acd579182015b82811115610acc578235825591602001919060010190610ab1565b5b509050610ada9190610ade565b5090565b5b80821115610af7576000816000905550600101610adf565b5090565b600080fd5b600080fd5b600080fd5b600080fd5b600080fd5b60008083601f840112610b2a57610b29610b05565b5b8235905067ffffffffffffffff811115610b4757610b46610b0a565b5b602083019150836001820283011115610b6357610b62610b0f565b5b9250929050565b60008060208385031215610b8157610b80610afb565b5b600083013567ffffffffffffffff811115610b9f57610b9e610b00565b5b610bab85828601610b14565b92509250509250929050565b600060ff82169050919050565b610bcd81610bb7565b8114610bd857600080fd5b50565b600081359050610bea81610bc4565b92915050565b600080600060408486031215610c0957610c08610afb565b5b600084013567ffffffffffffffff811115610c2757610c26610b00565b5b610c3386828701610b14565b93509350506020610c4686828701610bdb565b9150509250925092565b6000819050919050565b610c6381610c50565b82525050565b6000602082019050610c7e6000830184610c5a565b92915050565b600081519050919050565b600082825260208201905092915050565b60005b83811015610cbe578082015181840152602081019050610ca3565b83811115610ccd576000848401525b50505050565b6000601f19601f8301169050919050565b6000610cef82610c84565b610cf98185610c8f565b9350610d09818560208601610ca0565b610d1281610cd3565b840191505092915050565b60006020820190508181036000830152610d378184610ce4565b905092915050565b600073ffffffffffffffffffffffffffffffffffffffff82169050919050565b6000610d6a82610d3f565b9050919050565b610d7a81610d5f565b8114610d8557600080fd5b50565b600081359050610d9781610d71565b92915050565b600060208284031215610db357610db2610afb565b5b6000610dc184828501610d88565b91505092915050565b60008115159050919050565b610ddf81610dca565b82525050565b6000602082019050610dfa6000830184610dd6565b92915050565b610e0981610d5f565b82525050565b6000602082019050610e246000830184610e00565b92915050565b600081905092915050565b82818337600083830152505050565b6000610e508385610e2a565b9350610e5d838584610e35565b82840190509392505050565b6000610e76828486610e44565b91508190509392505050565b7f4e487b7100000000000000000000000000000000000000000000000000000000600052602260045260246000fd5b60006002820490506001821680610ec957607f821691505b60208210811415610edd57610edc610e82565b5b50919050565b7f556e617574686f72697a65642052657175657374000000000000000000000000600082015250565b6000610f19601483610c8f565b9150610f2482610ee3565b602082019050919050565b60006020820190508181036000830152610f4881610f0c565b9050919050565b7f4e487b7100000000000000000000000000000000000000000000000000000000600052601160045260246000fd5b6000610f8982610c50565b91507fffffffffffffffffffffffffffffffffffffffffffffffffffffffffffffffff821415610fbc57610fbb610f4f565b5b60018201905091905056fea26469706673582212204a04918a3f0f6ce207027a6e748529de5e0fa8cc14dcfe0b9aea899cc16cd47164736f6c63430008090033",
  "linkReferences": {},
  "deployedLinkReferences": {}
}