{
  "_format": "hh-sol-artifact-1",
  "contractName": "CollegeContract",
  "sourceName": "contracts/Token.sol",
  "abi": [
    {
      "inputs": [],
      "stateMutability": "nonpayable",
      "type": "constructor"
    },
    {
      "inputs": [
        {
          "internalType": "address",
          "name": "_allowedAdmin",
          "type": "address"
        }
      ],
      "name": "addAdmin",
      "outputs": [],
      "stateMutability": "nonpayable",
      "type": "function"
    },
    {
      "inputs": [
        {
          "internalType": "string",
          "name": "_pollList",
          "type": "string"
        }
      ],
      "name": "addPolls",
      "outputs": [],
      "stateMutability": "nonpayable",
      "type": "function"
    },
    {
      "inputs": [
        {
          "internalType": "string",
          "name": "_pollList",
          "type": "string"
        }
      ],
      "name": "addPost",
      "outputs": [],
      "stateMutability": "nonpayable",
      "type": "function"
    },
    {
      "inputs": [
        {
          "internalType": "string",
          "name": "_pollList",
          "type": "string"
        }
      ],
      "name": "addSuggestion",
      "outputs": [],
      "stateMutability": "nonpayable",
      "type": "function"
    },
    {
      "inputs": [
        {
          "internalType": "string",
          "name": "_allowedUser",
          "type": "string"
        }
      ],
      "name": "addUser",
      "outputs": [],
      "stateMutability": "nonpayable",
      "type": "function"
    },
    {
      "inputs": [],
      "name": "getPollsList",
      "outputs": [
        {
          "internalType": "string",
          "name": "",
          "type": "string"
        }
      ],
      "stateMutability": "view",
      "type": "function"
    },
    {
      "inputs": [],
      "name": "getPost",
      "outputs": [
        {
          "internalType": "string",
          "name": "",
          "type": "string"
        }
      ],
      "stateMutability": "view",
      "type": "function"
    },
    {
      "inputs": [],
      "name": "getQuote",
      "outputs": [
        {
          "internalType": "string",
          "name": "currentQuote",
          "type": "string"
        },
        {
          "internalType": "address",
          "name": "currentOwner",
          "type": "address"
        }
      ],
      "stateMutability": "view",
      "type": "function"
    },
    {
      "inputs": [
        {
          "internalType": "string",
          "name": "polldata",
          "type": "string"
        },
        {
          "internalType": "uint8",
          "name": "optionId",
          "type": "uint8"
        }
      ],
      "name": "getScore",
      "outputs": [
        {
          "internalType": "uint256",
          "name": "",
          "type": "uint256"
        }
      ],
      "stateMutability": "view",
      "type": "function"
    },
    {
      "inputs": [],
      "name": "getSuggestion",
      "outputs": [
        {
          "internalType": "string",
          "name": "",
          "type": "string"
        }
      ],
      "stateMutability": "view",
      "type": "function"
    },
    {
      "inputs": [],
      "name": "getUser",
      "outputs": [
        {
          "internalType": "string",
          "name": "",
          "type": "string"
        }
      ],
      "stateMutability": "view",
      "type": "function"
    },
    {
      "inputs": [
        {
          "internalType": "address",
          "name": "",
          "type": "address"
        }
      ],
      "name": "nonces",
      "outputs": [
        {
          "internalType": "uint256",
          "name": "",
          "type": "uint256"
        }
      ],
      "stateMutability": "view",
      "type": "function"
    },
    {
      "inputs": [],
      "name": "owner",
      "outputs": [
        {
          "internalType": "address",
          "name": "",
          "type": "address"
        }
      ],
      "stateMutability": "view",
      "type": "function"
    },
    {
      "inputs": [],
      "name": "quote",
      "outputs": [
        {
          "internalType": "string",
          "name": "",
          "type": "string"
        }
      ],
      "stateMutability": "view",
      "type": "function"
    },
    {
      "inputs": [
        {
          "internalType": "string",
          "name": "newQuote",
          "type": "string"
        }
      ],
      "name": "setQuote",
      "outputs": [],
      "stateMutability": "nonpayable",
      "type": "function"
    },
    {
      "inputs": [
        {
          "internalType": "address",
          "name": "userAddress",
          "type": "address"
        },
        {
          "internalType": "string",
          "name": "newQuote",
          "type": "string"
        },
        {
          "internalType": "bytes32",
          "name": "r",
          "type": "bytes32"
        },
        {
          "internalType": "bytes32",
          "name": "s",
          "type": "bytes32"
        },
        {
          "internalType": "uint8",
          "name": "v",
          "type": "uint8"
        }
      ],
      "name": "setQuoteMeta",
      "outputs": [],
      "stateMutability": "nonpayable",
      "type": "function"
    },
    {
      "inputs": [
        {
          "internalType": "string",
          "name": "polldata",
          "type": "string"
        },
        {
          "internalType": "uint8",
          "name": "optionId",
          "type": "uint8"
        }
      ],
      "name": "vote",
      "outputs": [],
      "stateMutability": "nonpayable",
      "type": "function"
    }
  ],
  "bytecode": "0x60806040526040518060400160405280600d81526020017f7366766b646a6662766a6c766e00000000000000000000000000000000000000815250600090816200004a91906200051a565b506040518060800160405280605281526020016200205660529139805190602001206040518060400160405280600581526020017f51756f7465000000000000000000000000000000000000000000000000000000815250805190602001206040518060400160405280600181526020017f310000000000000000000000000000000000000000000000000000000000000081525080519060200120600530604051602001620000ff959493929190620006b1565b604051602081830303815290604052805190602001206003556040518060400160405280600881526020017f697066734c696e6b000000000000000000000000000000000000000000000000815250600590816200015e91906200051a565b506040518060400160405280601581526020017f736a68766277766b76626f77727562766f77726976000000000000000000000081525060069081620001a591906200051a565b506040518060400160405280601081526020017f736b766a62736e6c766b6e6c6b766e770000000000000000000000000000000081525060079081620001ec91906200051a565b506040518060400160405280600481526020017f616b756200000000000000000000000000000000000000000000000000000000815250600890816200023391906200051a565b503480156200024157600080fd5b506001600460003373ffffffffffffffffffffffffffffffffffffffff1673ffffffffffffffffffffffffffffffffffffffff16815260200190815260200160002060006101000a81548160ff0219169083151502179055506200070e565b600081519050919050565b7f4e487b7100000000000000000000000000000000000000000000000000000000600052604160045260246000fd5b7f4e487b7100000000000000000000000000000000000000000000000000000000600052602260045260246000fd5b600060028204905060018216806200032257607f821691505b602082108103620003385762000337620002da565b5b50919050565b60008190508160005260206000209050919050565b60006020601f8301049050919050565b600082821b905092915050565b600060088302620003a27fffffffffffffffffffffffffffffffffffffffffffffffffffffffffffffffff8262000363565b620003ae868362000363565b95508019841693508086168417925050509392505050565b6000819050919050565b6000819050919050565b6000620003fb620003f5620003ef84620003c6565b620003d0565b620003c6565b9050919050565b6000819050919050565b6200041783620003da565b6200042f620004268262000402565b84845462000370565b825550505050565b600090565b6200044662000437565b620004538184846200040c565b505050565b5b818110156200047b576200046f6000826200043c565b60018101905062000459565b5050565b601f821115620004ca5762000494816200033e565b6200049f8462000353565b81016020851015620004af578190505b620004c7620004be8562000353565b83018262000458565b50505b505050565b600082821c905092915050565b6000620004ef60001984600802620004cf565b1980831691505092915050565b60006200050a8383620004dc565b9150826002028217905092915050565b6200052582620002a0565b67ffffffffffffffff811115620005415762000540620002ab565b5b6200054d825462000309565b6200055a8282856200047f565b600060209050601f8311600181146200059257600084156200057d578287015190505b620005898582620004fc565b865550620005f9565b601f198416620005a2866200033e565b60005b82811015620005cc57848901518255600182019150602085019450602081019050620005a5565b86831015620005ec5784890151620005e8601f891682620004dc565b8355505b6001600288020188555050505b505050505050565b6000819050919050565b620006168162000601565b82525050565b6000819050919050565b600060ff82169050919050565b6000620006546200064e62000648846200061c565b620003d0565b62000626565b9050919050565b620006668162000633565b82525050565b600073ffffffffffffffffffffffffffffffffffffffff82169050919050565b600062000699826200066c565b9050919050565b620006ab816200068c565b82525050565b600060a082019050620006c860008301886200060b565b620006d760208301876200060b565b620006e660408301866200060b565b620006f560608301856200065b565b620007046080830184620006a0565b9695505050505050565b611938806200071e6000396000f3fe608060405234801561001057600080fd5b506004361061010b5760003560e01c8063832880e7116100a2578063999b93af11610071578063999b93af14610293578063a6322819146102b1578063a8aeef70146102cd578063e3de1703146102e9578063ed355834146103055761010b565b8063832880e71461021d5780638c6838ba1461023b5780638da5cb5b1461025957806390ca27f3146102775761010b565b806318b8275a116100de57806318b8275a1461019757806368d005af146101b357806370480275146101d15780637ecebe00146101ed5761010b565b806301a667121461011057806303f99b7e1461012c57806305540d0d1461015c578063171755b114610178575b600080fd5b61012a60048036038101906101259190610ce5565b610323565b005b61014660048036038101906101419190610d6b565b610339565b6040516101539190610de4565b60405180910390f35b61017660048036038101906101719190610fd4565b61037c565b005b610180610644565b60405161018e9291906110f9565b60405180910390f35b6101b160048036038101906101ac9190610ce5565b6106fd565b005b6101bb61079f565b6040516101c89190611129565b60405180910390f35b6101eb60048036038101906101e6919061114b565b610831565b005b6102076004803603810190610202919061114b565b610918565b6040516102149190610de4565b60405180910390f35b610225610930565b6040516102329190611129565b60405180910390f35b6102436109c2565b6040516102509190611129565b60405180910390f35b610261610a54565b60405161026e9190611178565b60405180910390f35b610291600480360381019061028c9190610d6b565b610a7a565b005b61029b610acc565b6040516102a89190611129565b60405180910390f35b6102cb60048036038101906102c69190610ce5565b610b5a565b005b6102e760048036038101906102e29190610ce5565b610b70565b005b61030360048036038101906102fe9190611193565b610b86565b005b61030d610bda565b60405161031a9190611129565b60405180910390f35b8181600891826103349291906113f3565b505050565b60006009848460405161034d9291906114f3565b908152602001604051809103902060008360ff1660ff1681526020019081526020016000205490509392505050565b60006040518060400160405280600260008973ffffffffffffffffffffffffffffffffffffffff1673ffffffffffffffffffffffffffffffffffffffff1681526020019081526020016000205481526020018773ffffffffffffffffffffffffffffffffffffffff16815250905060006003546040518060600160405280602b81526020016118d8602b9139805190602001208360000151846020015160405160200161042b9392919061151b565b604051602081830303815290604052805190602001206040516020016104529291906115bf565b604051602081830303815290604052805190602001209050600073ffffffffffffffffffffffffffffffffffffffff168773ffffffffffffffffffffffffffffffffffffffff16036104d9576040517f08c379a00000000000000000000000000000000000000000000000000000000081526004016104d090611642565b60405180910390fd5b600181848787604051600081526020016040526040516104fc9493929190611671565b6020604051602081039080840390855afa15801561051e573d6000803e3d6000fd5b5050506020604051035173ffffffffffffffffffffffffffffffffffffffff168773ffffffffffffffffffffffffffffffffffffffff1614610595576040517f08c379a000000000000000000000000000000000000000000000000000000000815260040161058c90611702565b60405180910390fd5b85600090816105a49190611722565b5086600160006101000a81548173ffffffffffffffffffffffffffffffffffffffff021916908373ffffffffffffffffffffffffffffffffffffffff160217905550600260008873ffffffffffffffffffffffffffffffffffffffff1673ffffffffffffffffffffffffffffffffffffffff168152602001908152602001600020600081548092919061063690611823565b919050555050505050505050565b6060600080805461065490611216565b80601f016020809104026020016040519081016040528092919081815260200182805461068090611216565b80156106cd5780601f106106a2576101008083540402835291602001916106cd565b820191906000526020600020905b8154815290600101906020018083116106b057829003601f168201915b50505050509150600160009054906101000a900473ffffffffffffffffffffffffffffffffffffffff1690509091565b600460003373ffffffffffffffffffffffffffffffffffffffff1673ffffffffffffffffffffffffffffffffffffffff16815260200190815260200160002060009054906101000a900460ff16610789576040517f08c379a0000000000000000000000000000000000000000000000000000000008152600401610780906118b7565b60405180910390fd5b81816005918261079a9291906113f3565b505050565b6060600880546107ae90611216565b80601f01602080910402602001604051908101604052809291908181526020018280546107da90611216565b80156108275780601f106107fc57610100808354040283529160200191610827565b820191906000526020600020905b81548152906001019060200180831161080a57829003601f168201915b5050505050905090565b600460003373ffffffffffffffffffffffffffffffffffffffff1673ffffffffffffffffffffffffffffffffffffffff16815260200190815260200160002060009054906101000a900460ff166108bd576040517f08c379a00000000000000000000000000000000000000000000000000000000081526004016108b4906118b7565b60405180910390fd5b6001600460008373ffffffffffffffffffffffffffffffffffffffff1673ffffffffffffffffffffffffffffffffffffffff16815260200190815260200160002060006101000a81548160ff02191690831515021790555050565b60026020528060005260406000206000915090505481565b60606005805461093f90611216565b80601f016020809104026020016040519081016040528092919081815260200182805461096b90611216565b80156109b85780601f1061098d576101008083540402835291602001916109b8565b820191906000526020600020905b81548152906001019060200180831161099b57829003601f168201915b5050505050905090565b6060600680546109d190611216565b80601f01602080910402602001604051908101604052809291908181526020018280546109fd90611216565b8015610a4a5780601f10610a1f57610100808354040283529160200191610a4a565b820191906000526020600020905b815481529060010190602001808311610a2d57829003601f168201915b5050505050905090565b600160009054906101000a900473ffffffffffffffffffffffffffffffffffffffff1681565b60098383604051610a8c9291906114f3565b908152602001604051809103902060008260ff1660ff1681526020019081526020016000206000815480929190610ac290611823565b9190505550505050565b60008054610ad990611216565b80601f0160208091040260200160405190810160405280929190818152602001828054610b0590611216565b8015610b525780601f10610b2757610100808354040283529160200191610b52565b820191906000526020600020905b815481529060010190602001808311610b3557829003601f168201915b505050505081565b818160069182610b6b9291906113f3565b505050565b818160069182610b819291906113f3565b505050565b8060009081610b959190611722565b5033600160006101000a81548173ffffffffffffffffffffffffffffffffffffffff021916908373ffffffffffffffffffffffffffffffffffffffff16021790555050565b606060068054610be990611216565b80601f0160208091040260200160405190810160405280929190818152602001828054610c1590611216565b8015610c625780601f10610c3757610100808354040283529160200191610c62565b820191906000526020600020905b815481529060010190602001808311610c4557829003601f168201915b5050505050905090565b6000604051905090565b600080fd5b600080fd5b600080fd5b600080fd5b600080fd5b60008083601f840112610ca557610ca4610c80565b5b8235905067ffffffffffffffff811115610cc257610cc1610c85565b5b602083019150836001820283011115610cde57610cdd610c8a565b5b9250929050565b60008060208385031215610cfc57610cfb610c76565b5b600083013567ffffffffffffffff811115610d1a57610d19610c7b565b5b610d2685828601610c8f565b92509250509250929050565b600060ff82169050919050565b610d4881610d32565b8114610d5357600080fd5b50565b600081359050610d6581610d3f565b92915050565b600080600060408486031215610d8457610d83610c76565b5b600084013567ffffffffffffffff811115610da257610da1610c7b565b5b610dae86828701610c8f565b93509350506020610dc186828701610d56565b9150509250925092565b6000819050919050565b610dde81610dcb565b82525050565b6000602082019050610df96000830184610dd5565b92915050565b600073ffffffffffffffffffffffffffffffffffffffff82169050919050565b6000610e2a82610dff565b9050919050565b610e3a81610e1f565b8114610e4557600080fd5b50565b600081359050610e5781610e31565b92915050565b600080fd5b6000601f19601f8301169050919050565b7f4e487b7100000000000000000000000000000000000000000000000000000000600052604160045260246000fd5b610eab82610e62565b810181811067ffffffffffffffff82111715610eca57610ec9610e73565b5b80604052505050565b6000610edd610c6c565b9050610ee98282610ea2565b919050565b600067ffffffffffffffff821115610f0957610f08610e73565b5b610f1282610e62565b9050602081019050919050565b82818337600083830152505050565b6000610f41610f3c84610eee565b610ed3565b905082815260208101848484011115610f5d57610f5c610e5d565b5b610f68848285610f1f565b509392505050565b600082601f830112610f8557610f84610c80565b5b8135610f95848260208601610f2e565b91505092915050565b6000819050919050565b610fb181610f9e565b8114610fbc57600080fd5b50565b600081359050610fce81610fa8565b92915050565b600080600080600060a08688031215610ff057610fef610c76565b5b6000610ffe88828901610e48565b955050602086013567ffffffffffffffff81111561101f5761101e610c7b565b5b61102b88828901610f70565b945050604061103c88828901610fbf565b935050606061104d88828901610fbf565b925050608061105e88828901610d56565b9150509295509295909350565b600081519050919050565b600082825260208201905092915050565b60005b838110156110a557808201518184015260208101905061108a565b60008484015250505050565b60006110bc8261106b565b6110c68185611076565b93506110d6818560208601611087565b6110df81610e62565b840191505092915050565b6110f381610e1f565b82525050565b6000604082019050818103600083015261111381856110b1565b905061112260208301846110ea565b9392505050565b6000602082019050818103600083015261114381846110b1565b905092915050565b60006020828403121561116157611160610c76565b5b600061116f84828501610e48565b91505092915050565b600060208201905061118d60008301846110ea565b92915050565b6000602082840312156111a9576111a8610c76565b5b600082013567ffffffffffffffff8111156111c7576111c6610c7b565b5b6111d384828501610f70565b91505092915050565b600082905092915050565b7f4e487b7100000000000000000000000000000000000000000000000000000000600052602260045260246000fd5b6000600282049050600182168061122e57607f821691505b602082108103611241576112406111e7565b5b50919050565b60008190508160005260206000209050919050565b60006020601f8301049050919050565b600082821b905092915050565b6000600883026112a97fffffffffffffffffffffffffffffffffffffffffffffffffffffffffffffffff8261126c565b6112b3868361126c565b95508019841693508086168417925050509392505050565b6000819050919050565b60006112f06112eb6112e684610dcb565b6112cb565b610dcb565b9050919050565b6000819050919050565b61130a836112d5565b61131e611316826112f7565b848454611279565b825550505050565b600090565b611333611326565b61133e818484611301565b505050565b5b818110156113625761135760008261132b565b600181019050611344565b5050565b601f8211156113a75761137881611247565b6113818461125c565b81016020851015611390578190505b6113a461139c8561125c565b830182611343565b50505b505050565b600082821c905092915050565b60006113ca600019846008026113ac565b1980831691505092915050565b60006113e383836113b9565b9150826002028217905092915050565b6113fd83836111dc565b67ffffffffffffffff81111561141657611415610e73565b5b6114208254611216565b61142b828285611366565b6000601f83116001811461145a5760008415611448578287013590505b61145285826113d7565b8655506114ba565b601f19841661146886611247565b60005b828110156114905784890135825560018201915060208501945060208101905061146b565b868310156114ad57848901356114a9601f8916826113b9565b8355505b6001600288020188555050505b50505050505050565b600081905092915050565b60006114da83856114c3565b93506114e7838584610f1f565b82840190509392505050565b60006115008284866114ce565b91508190509392505050565b61151581610f9e565b82525050565b6000606082019050611530600083018661150c565b61153d6020830185610dd5565b61154a60408301846110ea565b949350505050565b7f1901000000000000000000000000000000000000000000000000000000000000600082015250565b60006115886002836114c3565b915061159382611552565b600282019050919050565b6000819050919050565b6115b96115b482610f9e565b61159e565b82525050565b60006115ca8261157b565b91506115d682856115a8565b6020820191506115e682846115a8565b6020820191508190509392505050565b7f696e76616c69642d616464726573732d30000000000000000000000000000000600082015250565b600061162c601183611076565b9150611637826115f6565b602082019050919050565b6000602082019050818103600083015261165b8161161f565b9050919050565b61166b81610d32565b82525050565b6000608082019050611686600083018761150c565b6116936020830186611662565b6116a0604083018561150c565b6116ad606083018461150c565b95945050505050565b7f696e76616c69642d7369676e6174757265730000000000000000000000000000600082015250565b60006116ec601283611076565b91506116f7826116b6565b602082019050919050565b6000602082019050818103600083015261171b816116df565b9050919050565b61172b8261106b565b67ffffffffffffffff81111561174457611743610e73565b5b61174e8254611216565b611759828285611366565b600060209050601f83116001811461178c576000841561177a578287015190505b61178485826113d7565b8655506117ec565b601f19841661179a86611247565b60005b828110156117c25784890151825560018201915060208501945060208101905061179d565b868310156117df57848901516117db601f8916826113b9565b8355505b6001600288020188555050505b505050505050565b7f4e487b7100000000000000000000000000000000000000000000000000000000600052601160045260246000fd5b600061182e82610dcb565b91507fffffffffffffffffffffffffffffffffffffffffffffffffffffffffffffffff82036118605761185f6117f4565b5b600182019050919050565b7f556e617574686f72697a65642052657175657374000000000000000000000000600082015250565b60006118a1601483611076565b91506118ac8261186b565b602082019050919050565b600060208201905081810360008301526118d081611894565b905091905056fe4d6574615472616e73616374696f6e2875696e74323536206e6f6e63652c616464726573732066726f6d29a26469706673582212208897d6b7237bd4e25bd2cd61bb34e5ae7a8029f251a826e3b353c4e26ff48e9164736f6c63430008110033454950373132446f6d61696e28737472696e67206e616d652c737472696e672076657273696f6e2c75696e7432353620636861696e49642c6164647265737320766572696679696e67436f6e747261637429",
  "linkReferences": {},
  "deployedLinkReferences": {}
}